{
  "_format": "hh-sol-artifact-1",
  "contractName": "smart_contractBC",
  "sourceName": "contracts/smart_contractBC.sol",
  "abi": [
    {
      "inputs": [],
      "stateMutability": "nonpayable",
      "type": "constructor"
    },
    {
      "anonymous": false,
      "inputs": [
        {
          "indexed": true,
          "internalType": "uint256",
          "name": "id",
          "type": "uint256"
        },
        {
          "indexed": false,
          "internalType": "string",
          "name": "name",
          "type": "string"
        },
        {
          "indexed": false,
          "internalType": "string",
          "name": "ipfsHash",
          "type": "string"
        },
        {
          "indexed": true,
          "internalType": "address",
          "name": "registeredBy",
          "type": "address"
        }
      ],
      "name": "ProductRegistered",
      "type": "event"
    },
    {
      "anonymous": false,
      "inputs": [
        {
          "indexed": true,
          "internalType": "address",
          "name": "user",
          "type": "address"
        },
        {
          "indexed": false,
          "internalType": "enum smart_contractBC.Role",
          "name": "role",
          "type": "uint8"
        }
      ],
      "name": "RoleUpdated",
      "type": "event"
    },
    {
      "inputs": [],
      "name": "getMyRole",
      "outputs": [
        {
          "internalType": "enum smart_contractBC.Role",
          "name": "",
          "type": "uint8"
        }
      ],
      "stateMutability": "view",
      "type": "function"
    },
    {
      "inputs": [
        {
          "internalType": "uint256",
          "name": "_id",
          "type": "uint256"
        }
      ],
      "name": "getProductDetails",
      "outputs": [
        {
          "internalType": "uint256",
          "name": "",
          "type": "uint256"
        },
        {
          "internalType": "string",
          "name": "",
          "type": "string"
        },
        {
          "internalType": "string",
          "name": "",
          "type": "string"
        },
        {
          "internalType": "address",
          "name": "",
          "type": "address"
        }
      ],
      "stateMutability": "view",
      "type": "function"
    },
    {
      "inputs": [],
      "name": "owner",
      "outputs": [
        {
          "internalType": "address",
          "name": "",
          "type": "address"
        }
      ],
      "stateMutability": "view",
      "type": "function"
    },
    {
      "inputs": [],
      "name": "productCount",
      "outputs": [
        {
          "internalType": "uint256",
          "name": "",
          "type": "uint256"
        }
      ],
      "stateMutability": "view",
      "type": "function"
    },
    {
      "inputs": [
        {
          "internalType": "uint256",
          "name": "",
          "type": "uint256"
        }
      ],
      "name": "products",
      "outputs": [
        {
          "internalType": "uint256",
          "name": "id",
          "type": "uint256"
        },
        {
          "internalType": "string",
          "name": "name",
          "type": "string"
        },
        {
          "internalType": "string",
          "name": "ipfsHash",
          "type": "string"
        },
        {
          "internalType": "address",
          "name": "registeredBy",
          "type": "address"
        },
        {
          "internalType": "bool",
          "name": "exists",
          "type": "bool"
        }
      ],
      "stateMutability": "view",
      "type": "function"
    },
    {
      "inputs": [
        {
          "internalType": "string",
          "name": "_name",
          "type": "string"
        },
        {
          "internalType": "string",
          "name": "_ipfsHash",
          "type": "string"
        }
      ],
      "name": "registerProduct",
      "outputs": [],
      "stateMutability": "nonpayable",
      "type": "function"
    },
    {
      "inputs": [
        {
          "internalType": "address",
          "name": "",
          "type": "address"
        }
      ],
      "name": "roles",
      "outputs": [
        {
          "internalType": "enum smart_contractBC.Role",
          "name": "",
          "type": "uint8"
        }
      ],
      "stateMutability": "view",
      "type": "function"
    },
    {
      "inputs": [
        {
          "internalType": "address",
          "name": "user",
          "type": "address"
        },
        {
          "internalType": "enum smart_contractBC.Role",
          "name": "role",
          "type": "uint8"
        }
      ],
      "name": "setRole",
      "outputs": [],
      "stateMutability": "nonpayable",
      "type": "function"
    }
  ],
  "bytecode": "0x6080604052348015600f57600080fd5b50336000806101000a81548173ffffffffffffffffffffffffffffffffffffffff021916908373ffffffffffffffffffffffffffffffffffffffff16021790555060018060003373ffffffffffffffffffffffffffffffffffffffff1673ffffffffffffffffffffffffffffffffffffffff16815260200190815260200160002060006101000a81548160ff0219169083600381111560af5760ae60b8565b5b021790555060e7565b7f4e487b7100000000000000000000000000000000000000000000000000000000600052602160045260246000fd5b6113d7806100f66000396000f3fe608060405234801561001057600080fd5b50600436106100885760003560e01c80638da5cb5b1161005b5780638da5cb5b1461012e5780638fbd0dcf1461014c5780639937464214610168578063e0f6ef871461019857610088565b8063571c3e601461008d5780636813b53b146100a95780636e3b47fc146100dc5780637acc0b20146100fa575b600080fd5b6100a760048036038101906100a29190610a0f565b6101b6565b005b6100c360048036038101906100be9190610a85565b6102fd565b6040516100d39493929190610b60565b60405180910390f35b6100e461054c565b6040516100f19190610c2a565b60405180910390f35b610114600480360381019061010f9190610a85565b6105a0565b604051610125959493929190610c60565b60405180910390f35b610136610713565b6040516101439190610cc1565b60405180910390f35b61016660048036038101906101619190610e11565b610737565b005b610182600480360381019061017d9190610e89565b610952565b60405161018f9190610c2a565b60405180910390f35b6101a0610972565b6040516101ad9190610eb6565b60405180910390f35b60008054906101000a900473ffffffffffffffffffffffffffffffffffffffff1673ffffffffffffffffffffffffffffffffffffffff163373ffffffffffffffffffffffffffffffffffffffff1614610244576040517f08c379a000000000000000000000000000000000000000000000000000000000815260040161023b90610f1d565b60405180910390fd5b80600160008473ffffffffffffffffffffffffffffffffffffffff1673ffffffffffffffffffffffffffffffffffffffff16815260200190815260200160002060006101000a81548160ff021916908360038111156102a6576102a5610bb3565b5b02179055508173ffffffffffffffffffffffffffffffffffffffff167fc3f8f61911a1537261f77e2703626e158e299a98e341024ecaa26bbd1d884c64826040516102f19190610c2a565b60405180910390a25050565b600060608060006003600086815260200190815260200160002060030160149054906101000a900460ff16610367576040517f08c379a000000000000000000000000000000000000000000000000000000000815260040161035e90610f89565b60405180910390fd5b6000600360008781526020019081526020016000206040518060a0016040529081600082015481526020016001820180546103a190610fd8565b80601f01602080910402602001604051908101604052809291908181526020018280546103cd90610fd8565b801561041a5780601f106103ef5761010080835404028352916020019161041a565b820191906000526020600020905b8154815290600101906020018083116103fd57829003601f168201915b5050505050815260200160028201805461043390610fd8565b80601f016020809104026020016040519081016040528092919081815260200182805461045f90610fd8565b80156104ac5780601f10610481576101008083540402835291602001916104ac565b820191906000526020600020905b81548152906001019060200180831161048f57829003601f168201915b505050505081526020016003820160009054906101000a900473ffffffffffffffffffffffffffffffffffffffff1673ffffffffffffffffffffffffffffffffffffffff1673ffffffffffffffffffffffffffffffffffffffff1681526020016003820160149054906101000a900460ff161515151581525050905080600001518160200151826040015183606001519450945094509450509193509193565b6000600160003373ffffffffffffffffffffffffffffffffffffffff1673ffffffffffffffffffffffffffffffffffffffff16815260200190815260200160002060009054906101000a900460ff16905090565b60036020528060005260406000206000915090508060000154908060010180546105c990610fd8565b80601f01602080910402602001604051908101604052809291908181526020018280546105f590610fd8565b80156106425780601f1061061757610100808354040283529160200191610642565b820191906000526020600020905b81548152906001019060200180831161062557829003601f168201915b50505050509080600201805461065790610fd8565b80601f016020809104026020016040519081016040528092919081815260200182805461068390610fd8565b80156106d05780601f106106a5576101008083540402835291602001916106d0565b820191906000526020600020905b8154815290600101906020018083116106b357829003601f168201915b5050505050908060030160009054906101000a900473ffffffffffffffffffffffffffffffffffffffff16908060030160149054906101000a900460ff16905085565b60008054906101000a900473ffffffffffffffffffffffffffffffffffffffff1681565b600180600381111561074c5761074b610bb3565b5b600160003373ffffffffffffffffffffffffffffffffffffffff1673ffffffffffffffffffffffffffffffffffffffff16815260200190815260200160002060009054906101000a900460ff1660038111156107ab576107aa610bb3565b5b146107eb576040517f08c379a00000000000000000000000000000000000000000000000000000000081526004016107e290611055565b60405180910390fd5b600260008154809291906107fe906110a4565b91905055506040518060a0016040528060025481526020018481526020018381526020013373ffffffffffffffffffffffffffffffffffffffff168152602001600115158152506003600060025481526020019081526020016000206000820151816000015560208201518160010190816108799190611298565b50604082015181600201908161088f9190611298565b5060608201518160030160006101000a81548173ffffffffffffffffffffffffffffffffffffffff021916908373ffffffffffffffffffffffffffffffffffffffff16021790555060808201518160030160146101000a81548160ff0219169083151502179055509050503373ffffffffffffffffffffffffffffffffffffffff166002547f9c6f3080993917af3ab38b7e74759890e4a9907d04850fcd47b5ba128e790ac0858560405161094592919061136a565b60405180910390a3505050565b60016020528060005260406000206000915054906101000a900460ff1681565b60025481565b6000604051905090565b600080fd5b600080fd5b600073ffffffffffffffffffffffffffffffffffffffff82169050919050565b60006109b78261098c565b9050919050565b6109c7816109ac565b81146109d257600080fd5b50565b6000813590506109e4816109be565b92915050565b600481106109f757600080fd5b50565b600081359050610a09816109ea565b92915050565b60008060408385031215610a2657610a25610982565b5b6000610a34858286016109d5565b9250506020610a45858286016109fa565b9150509250929050565b6000819050919050565b610a6281610a4f565b8114610a6d57600080fd5b50565b600081359050610a7f81610a59565b92915050565b600060208284031215610a9b57610a9a610982565b5b6000610aa984828501610a70565b91505092915050565b610abb81610a4f565b82525050565b600081519050919050565b600082825260208201905092915050565b60005b83811015610afb578082015181840152602081019050610ae0565b60008484015250505050565b6000601f19601f8301169050919050565b6000610b2382610ac1565b610b2d8185610acc565b9350610b3d818560208601610add565b610b4681610b07565b840191505092915050565b610b5a816109ac565b82525050565b6000608082019050610b756000830187610ab2565b8181036020830152610b878186610b18565b90508181036040830152610b9b8185610b18565b9050610baa6060830184610b51565b95945050505050565b7f4e487b7100000000000000000000000000000000000000000000000000000000600052602160045260246000fd5b60048110610bf357610bf2610bb3565b5b50565b6000819050610c0482610be2565b919050565b6000610c1482610bf6565b9050919050565b610c2481610c09565b82525050565b6000602082019050610c3f6000830184610c1b565b92915050565b60008115159050919050565b610c5a81610c45565b82525050565b600060a082019050610c756000830188610ab2565b8181036020830152610c878187610b18565b90508181036040830152610c9b8186610b18565b9050610caa6060830185610b51565b610cb76080830184610c51565b9695505050505050565b6000602082019050610cd66000830184610b51565b92915050565b600080fd5b600080fd5b7f4e487b7100000000000000000000000000000000000000000000000000000000600052604160045260246000fd5b610d1e82610b07565b810181811067ffffffffffffffff82111715610d3d57610d3c610ce6565b5b80604052505050565b6000610d50610978565b9050610d5c8282610d15565b919050565b600067ffffffffffffffff821115610d7c57610d7b610ce6565b5b610d8582610b07565b9050602081019050919050565b82818337600083830152505050565b6000610db4610daf84610d61565b610d46565b905082815260208101848484011115610dd057610dcf610ce1565b5b610ddb848285610d92565b509392505050565b600082601f830112610df857610df7610cdc565b5b8135610e08848260208601610da1565b91505092915050565b60008060408385031215610e2857610e27610982565b5b600083013567ffffffffffffffff811115610e4657610e45610987565b5b610e5285828601610de3565b925050602083013567ffffffffffffffff811115610e7357610e72610987565b5b610e7f85828601610de3565b9150509250929050565b600060208284031215610e9f57610e9e610982565b5b6000610ead848285016109d5565b91505092915050565b6000602082019050610ecb6000830184610ab2565b92915050565b7f4e6f7420636f6e7472616374206f776e65720000000000000000000000000000600082015250565b6000610f07601283610acc565b9150610f1282610ed1565b602082019050919050565b60006020820190508181036000830152610f3681610efa565b9050919050565b7f50726f64756374206e6f7420666f756e64000000000000000000000000000000600082015250565b6000610f73601183610acc565b9150610f7e82610f3d565b602082019050919050565b60006020820190508181036000830152610fa281610f66565b9050919050565b7f4e487b7100000000000000000000000000000000000000000000000000000000600052602260045260246000fd5b60006002820490506001821680610ff057607f821691505b60208210810361100357611002610fa9565b5b50919050565b7f466f7262696464656e3a2077726f6e6720726f6c650000000000000000000000600082015250565b600061103f601583610acc565b915061104a82611009565b602082019050919050565b6000602082019050818103600083015261106e81611032565b9050919050565b7f4e487b7100000000000000000000000000000000000000000000000000000000600052601160045260246000fd5b60006110af82610a4f565b91507fffffffffffffffffffffffffffffffffffffffffffffffffffffffffffffffff82036110e1576110e0611075565b5b600182019050919050565b60008190508160005260206000209050919050565b60006020601f8301049050919050565b600082821b905092915050565b60006008830261114e7fffffffffffffffffffffffffffffffffffffffffffffffffffffffffffffffff82611111565b6111588683611111565b95508019841693508086168417925050509392505050565b6000819050919050565b600061119561119061118b84610a4f565b611170565b610a4f565b9050919050565b6000819050919050565b6111af8361117a565b6111c36111bb8261119c565b84845461111e565b825550505050565b600090565b6111d86111cb565b6111e38184846111a6565b505050565b5b81811015611207576111fc6000826111d0565b6001810190506111e9565b5050565b601f82111561124c5761121d816110ec565b61122684611101565b81016020851015611235578190505b61124961124185611101565b8301826111e8565b50505b505050565b600082821c905092915050565b600061126f60001984600802611251565b1980831691505092915050565b6000611288838361125e565b9150826002028217905092915050565b6112a182610ac1565b67ffffffffffffffff8111156112ba576112b9610ce6565b5b6112c48254610fd8565b6112cf82828561120b565b600060209050601f83116001811461130257600084156112f0578287015190505b6112fa858261127c565b865550611362565b601f198416611310866110ec565b60005b8281101561133857848901518255600182019150602085019450602081019050611313565b868310156113555784890151611351601f89168261125e565b8355505b6001600288020188555050505b505050505050565b600060408201905081810360008301526113848185610b18565b905081810360208301526113988184610b18565b9050939250505056fea2646970667358221220cc248c83b9e6501b9647f1159f9cad442ce557b57a41d43a2038b85c7c5bc4e664736f6c634300081c0033",
  "linkReferences": {},
  "deployedLinkReferences": {}
}